{
  "contractName": "Items",
  "abi": [
    {
      "inputs": [
        {
          "internalType": "contract Token",
          "name": "_token",
          "type": "address"
        }
      ],
      "stateMutability": "nonpayable",
      "type": "constructor"
    },
    {
      "anonymous": false,
      "inputs": [
        {
          "indexed": true,
          "internalType": "address",
          "name": "owner",
          "type": "address"
        },
        {
          "indexed": true,
          "internalType": "address",
          "name": "approved",
          "type": "address"
        },
        {
          "indexed": true,
          "internalType": "uint256",
          "name": "tokenId",
          "type": "uint256"
        }
      ],
      "name": "Approval",
      "type": "event"
    },
    {
      "anonymous": false,
      "inputs": [
        {
          "indexed": true,
          "internalType": "address",
          "name": "owner",
          "type": "address"
        },
        {
          "indexed": true,
          "internalType": "address",
          "name": "operator",
          "type": "address"
        },
        {
          "indexed": false,
          "internalType": "bool",
          "name": "approved",
          "type": "bool"
        }
      ],
      "name": "ApprovalForAll",
      "type": "event"
    },
    {
      "anonymous": false,
      "inputs": [
        {
          "indexed": false,
          "internalType": "uint256",
          "name": "itemId",
          "type": "uint256"
        },
        {
          "indexed": false,
          "internalType": "string",
          "name": "name",
          "type": "string"
        },
        {
          "indexed": false,
          "internalType": "string",
          "name": "description",
          "type": "string"
        },
        {
          "indexed": false,
          "internalType": "string",
          "name": "imageURL",
          "type": "string"
        },
        {
          "indexed": false,
          "internalType": "uint256",
          "name": "prize",
          "type": "uint256"
        },
        {
          "indexed": false,
          "internalType": "address payable",
          "name": "owner",
          "type": "address"
        }
      ],
      "name": "ItemCreated",
      "type": "event"
    },
    {
      "anonymous": false,
      "inputs": [
        {
          "indexed": false,
          "internalType": "uint256",
          "name": "itemId",
          "type": "uint256"
        },
        {
          "indexed": false,
          "internalType": "uint256",
          "name": "amount",
          "type": "uint256"
        },
        {
          "indexed": false,
          "internalType": "uint256",
          "name": "prize",
          "type": "uint256"
        },
        {
          "indexed": false,
          "internalType": "address",
          "name": "from",
          "type": "address"
        },
        {
          "indexed": false,
          "internalType": "address payable",
          "name": "owner",
          "type": "address"
        }
      ],
      "name": "Payment",
      "type": "event"
    },
    {
      "anonymous": false,
      "inputs": [
        {
          "indexed": false,
          "internalType": "uint256",
          "name": "itemId",
          "type": "uint256"
        },
        {
          "indexed": false,
          "internalType": "uint256",
          "name": "red",
          "type": "uint256"
        },
        {
          "indexed": false,
          "internalType": "uint256",
          "name": "green",
          "type": "uint256"
        },
        {
          "indexed": false,
          "internalType": "uint256",
          "name": "blue",
          "type": "uint256"
        }
      ],
      "name": "RGBColor",
      "type": "event"
    },
    {
      "anonymous": false,
      "inputs": [
        {
          "indexed": true,
          "internalType": "address",
          "name": "from",
          "type": "address"
        },
        {
          "indexed": true,
          "internalType": "address",
          "name": "to",
          "type": "address"
        },
        {
          "indexed": true,
          "internalType": "uint256",
          "name": "tokenId",
          "type": "uint256"
        }
      ],
      "name": "Transfer",
      "type": "event"
    },
    {
      "inputs": [],
      "name": "_rewardId",
      "outputs": [
        {
          "internalType": "uint256",
          "name": "_value",
          "type": "uint256"
        }
      ],
      "stateMutability": "view",
      "type": "function",
      "constant": true
    },
    {
      "inputs": [
        {
          "internalType": "address",
          "name": "to",
          "type": "address"
        },
        {
          "internalType": "uint256",
          "name": "tokenId",
          "type": "uint256"
        }
      ],
      "name": "approve",
      "outputs": [],
      "stateMutability": "nonpayable",
      "type": "function"
    },
    {
      "inputs": [
        {
          "internalType": "address",
          "name": "owner",
          "type": "address"
        }
      ],
      "name": "balanceOf",
      "outputs": [
        {
          "internalType": "uint256",
          "name": "",
          "type": "uint256"
        }
      ],
      "stateMutability": "view",
      "type": "function",
      "constant": true
    },
    {
      "inputs": [
        {
          "internalType": "uint256",
          "name": "tokenId",
          "type": "uint256"
        }
      ],
      "name": "getApproved",
      "outputs": [
        {
          "internalType": "address",
          "name": "",
          "type": "address"
        }
      ],
      "stateMutability": "view",
      "type": "function",
      "constant": true
    },
    {
      "inputs": [
        {
          "internalType": "address",
          "name": "owner",
          "type": "address"
        },
        {
          "internalType": "address",
          "name": "operator",
          "type": "address"
        }
      ],
      "name": "isApprovedForAll",
      "outputs": [
        {
          "internalType": "bool",
          "name": "",
          "type": "bool"
        }
      ],
      "stateMutability": "view",
      "type": "function",
      "constant": true
    },
    {
      "inputs": [],
      "name": "itemCount",
      "outputs": [
        {
          "internalType": "uint256",
          "name": "",
          "type": "uint256"
        }
      ],
      "stateMutability": "view",
      "type": "function",
      "constant": true
    },
    {
      "inputs": [
        {
          "internalType": "uint256",
          "name": "",
          "type": "uint256"
        }
      ],
      "name": "items",
      "outputs": [
        {
          "internalType": "uint256",
          "name": "itemId",
          "type": "uint256"
        },
        {
          "internalType": "string",
          "name": "name",
          "type": "string"
        },
        {
          "internalType": "string",
          "name": "description",
          "type": "string"
        },
        {
          "internalType": "string",
          "name": "imageURL",
          "type": "string"
        },
        {
          "internalType": "uint256",
          "name": "prize",
          "type": "uint256"
        },
        {
          "internalType": "address payable",
          "name": "owner",
          "type": "address"
        }
      ],
      "stateMutability": "view",
      "type": "function",
      "constant": true
    },
    {
      "inputs": [],
      "name": "name",
      "outputs": [
        {
          "internalType": "string",
          "name": "",
          "type": "string"
        }
      ],
      "stateMutability": "view",
      "type": "function",
      "constant": true
    },
    {
      "inputs": [
        {
          "internalType": "uint256",
          "name": "tokenId",
          "type": "uint256"
        }
      ],
      "name": "ownerOf",
      "outputs": [
        {
          "internalType": "address",
          "name": "",
          "type": "address"
        }
      ],
      "stateMutability": "view",
      "type": "function",
      "constant": true
    },
    {
      "inputs": [
        {
          "internalType": "uint256",
          "name": "",
          "type": "uint256"
        }
      ],
      "name": "rewards",
      "outputs": [
        {
          "internalType": "uint256",
          "name": "rewardId",
          "type": "uint256"
        },
        {
          "internalType": "string",
          "name": "name",
          "type": "string"
        },
        {
          "internalType": "uint256",
          "name": "red",
          "type": "uint256"
        },
        {
          "internalType": "uint256",
          "name": "green",
          "type": "uint256"
        },
        {
          "internalType": "uint256",
          "name": "blue",
          "type": "uint256"
        },
        {
          "internalType": "uint256",
          "name": "prize",
          "type": "uint256"
        }
      ],
      "stateMutability": "view",
      "type": "function",
      "constant": true
    },
    {
      "inputs": [
        {
          "internalType": "address",
          "name": "from",
          "type": "address"
        },
        {
          "internalType": "address",
          "name": "to",
          "type": "address"
        },
        {
          "internalType": "uint256",
          "name": "tokenId",
          "type": "uint256"
        }
      ],
      "name": "safeTransferFrom",
      "outputs": [],
      "stateMutability": "nonpayable",
      "type": "function"
    },
    {
      "inputs": [
        {
          "internalType": "address",
          "name": "from",
          "type": "address"
        },
        {
          "internalType": "address",
          "name": "to",
          "type": "address"
        },
        {
          "internalType": "uint256",
          "name": "tokenId",
          "type": "uint256"
        },
        {
          "internalType": "bytes",
          "name": "_data",
          "type": "bytes"
        }
      ],
      "name": "safeTransferFrom",
      "outputs": [],
      "stateMutability": "nonpayable",
      "type": "function"
    },
    {
      "inputs": [
        {
          "internalType": "address",
          "name": "operator",
          "type": "address"
        },
        {
          "internalType": "bool",
          "name": "approved",
          "type": "bool"
        }
      ],
      "name": "setApprovalForAll",
      "outputs": [],
      "stateMutability": "nonpayable",
      "type": "function"
    },
    {
      "inputs": [
        {
          "internalType": "bytes4",
          "name": "interfaceId",
          "type": "bytes4"
        }
      ],
      "name": "supportsInterface",
      "outputs": [
        {
          "internalType": "bool",
          "name": "",
          "type": "bool"
        }
      ],
      "stateMutability": "view",
      "type": "function",
      "constant": true
    },
    {
      "inputs": [],
      "name": "symbol",
      "outputs": [
        {
          "internalType": "string",
          "name": "",
          "type": "string"
        }
      ],
      "stateMutability": "view",
      "type": "function",
      "constant": true
    },
    {
      "inputs": [
        {
          "internalType": "uint256",
          "name": "tokenId",
          "type": "uint256"
        }
      ],
      "name": "tokenURI",
      "outputs": [
        {
          "internalType": "string",
          "name": "",
          "type": "string"
        }
      ],
      "stateMutability": "view",
      "type": "function",
      "constant": true
    },
    {
      "inputs": [
        {
          "internalType": "address",
          "name": "from",
          "type": "address"
        },
        {
          "internalType": "address",
          "name": "to",
          "type": "address"
        },
        {
          "internalType": "uint256",
          "name": "tokenId",
          "type": "uint256"
        }
      ],
      "name": "transferFrom",
      "outputs": [],
      "stateMutability": "nonpayable",
      "type": "function"
    },
    {
      "inputs": [
        {
          "internalType": "string",
          "name": "_name",
          "type": "string"
        },
        {
          "internalType": "string",
          "name": "_description",
          "type": "string"
        },
        {
          "internalType": "string",
          "name": "_imageURL",
          "type": "string"
        },
        {
          "internalType": "uint256",
          "name": "_prize",
          "type": "uint256"
        }
      ],
      "name": "createItem",
      "outputs": [],
      "stateMutability": "nonpayable",
      "type": "function"
    },
    {
      "inputs": [
        {
          "internalType": "uint256",
          "name": "_itemId",
          "type": "uint256"
        },
        {
          "internalType": "string",
          "name": "_tokenURI",
          "type": "string"
        }
      ],
      "name": "paymentwithReward",
      "outputs": [],
      "stateMutability": "payable",
      "type": "function",
      "payable": true
    },
    {
      "inputs": [
        {
          "internalType": "uint256",
          "name": "_tokenId",
          "type": "uint256"
        }
      ],
      "name": "changeRewardColor",
      "outputs": [],
      "stateMutability": "nonpayable",
      "type": "function"
    },
    {
      "inputs": [],
      "name": "getLatestPrice",
      "outputs": [
        {
          "internalType": "int256",
          "name": "",
          "type": "int256"
        }
      ],
      "stateMutability": "view",
      "type": "function",
      "constant": true
    },
    {
      "inputs": [],
      "name": "fetchRewards",
      "outputs": [
        {
          "internalType": "uint256",
          "name": "",
          "type": "uint256"
        }
      ],
      "stateMutability": "view",
      "type": "function",
      "constant": true
    }
  ],
  "bytecode": "0x608060405260006007553480156200001657600080fd5b50604051620045533803806200455383398181016040528101906200003c919062000240565b6040518060400160405280600881526020017f50697a7a656e69610000000000000000000000000000000000000000000000008152506040518060400160405280600381526020017f505a4e00000000000000000000000000000000000000000000000000000000008152508160009080519060200190620000c092919062000179565b508060019080519060200190620000d992919062000179565b50505080600c60006101000a81548173ffffffffffffffffffffffffffffffffffffffff021916908373ffffffffffffffffffffffffffffffffffffffff16021790555073d0d5e3db44de05e9f294bb0a3beeaf030de24ada600b60006101000a81548173ffffffffffffffffffffffffffffffffffffffff021916908373ffffffffffffffffffffffffffffffffffffffff1602179055505062000333565b8280546200018790620002b4565b90600052602060002090601f016020900481019282620001ab5760008555620001f7565b82601f10620001c657805160ff1916838001178555620001f7565b82800160010185558215620001f7579182015b82811115620001f6578251825591602001919060010190620001d9565b5b5090506200020691906200020a565b5090565b5b80821115620002255760008160009055506001016200020b565b5090565b6000815190506200023a8162000319565b92915050565b6000602082840312156200025357600080fd5b6000620002638482850162000229565b91505092915050565b6000620002798262000294565b9050919050565b60006200028d826200026c565b9050919050565b600073ffffffffffffffffffffffffffffffffffffffff82169050919050565b60006002820490506001821680620002cd57607f821691505b60208210811415620002e457620002e3620002ea565b5b50919050565b7f4e487b7100000000000000000000000000000000000000000000000000000000600052602260045260246000fd5b620003248162000280565b81146200033057600080fd5b50565b61421080620003436000396000f3fe608060405260043610610152576000357c01000000000000000000000000000000000000000000000000000000009004806395d89b41116100c8578063b88d4fde1161008c578063b88d4fde14610434578063bfb231d21461045d578063c87b56dd1461049f578063e985e9c5146104dc578063ed21aa8914610519578063f301af421461054457610152565b806395d89b41146103705780639850e3b61461039b578063a22cb465146103c6578063abd9bda8146103ef578063af0a1eec1461040b57610152565b806342842e0e1161011a57806342842e0e1461024e5780636352211e146102775780636bfb0d01146102b457806370a08231146102df5780637ac1bc001461031c5780638e15f4731461034557610152565b806301ffc9a71461015757806306fdde0314610194578063081812fc146101bf578063095ea7b3146101fc57806323b872dd14610225575b600080fd5b34801561016357600080fd5b5061017e60048036038101906101799190612dea565b610586565b60405161018b9190613479565b60405180910390f35b3480156101a057600080fd5b506101a9610668565b6040516101b691906134af565b60405180910390f35b3480156101cb57600080fd5b506101e660048036038101906101e19190612ee7565b6106fa565b6040516101f391906133c0565b60405180910390f35b34801561020857600080fd5b50610223600480360381019061021e9190612d85565b61077f565b005b34801561023157600080fd5b5061024c60048036038101906102479190612c7f565b610897565b005b34801561025a57600080fd5b5061027560048036038101906102709190612c7f565b6108f7565b005b34801561028357600080fd5b5061029e60048036038101906102999190612ee7565b610917565b6040516102ab91906133c0565b60405180910390f35b3480156102c057600080fd5b506102c96109c9565b6040516102d691906136d1565b60405180910390f35b3480156102eb57600080fd5b5061030660048036038101906103019190612c1a565b6109cf565b60405161031391906136d1565b60405180910390f35b34801561032857600080fd5b50610343600480360381019061033e9190612e3c565b610a87565b005b34801561035157600080fd5b5061035a610c20565b6040516103679190613494565b60405180910390f35b34801561037c57600080fd5b50610385610cfa565b60405161039291906134af565b60405180910390f35b3480156103a757600080fd5b506103b0610d8c565b6040516103bd91906136d1565b60405180910390f35b3480156103d257600080fd5b506103ed60048036038101906103e89190612d49565b610d98565b005b61040960048036038101906104049190612f39565b610dae565b005b34801561041757600080fd5b50610432600480360381019061042d9190612ee7565b611325565b005b34801561044057600080fd5b5061045b60048036038101906104569190612cce565b61167b565b005b34801561046957600080fd5b50610484600480360381019061047f9190612ee7565b6116dd565b604051610496969594939291906136ec565b60405180910390f35b3480156104ab57600080fd5b506104c660048036038101906104c19190612ee7565b6118d1565b6040516104d391906134af565b60405180910390f35b3480156104e857600080fd5b5061050360048036038101906104fe9190612c43565b611a23565b6040516105109190613479565b60405180910390f35b34801561052557600080fd5b5061052e611ab7565b60405161053b91906136d1565b60405180910390f35b34801561055057600080fd5b5061056b60048036038101906105669190612ee7565b611acd565b60405161057d96959493929190613762565b60405180910390f35b60007f80ac58cd000000000000000000000000000000000000000000000000000000007bffffffffffffffffffffffffffffffffffffffffffffffffffffffff1916827bffffffffffffffffffffffffffffffffffffffffffffffffffffffff1916148061065157507f5b5e139f000000000000000000000000000000000000000000000000000000007bffffffffffffffffffffffffffffffffffffffffffffffffffffffff1916827bffffffffffffffffffffffffffffffffffffffffffffffffffffffff1916145b80610661575061066082611b91565b5b9050919050565b60606000805461067790613ae1565b80601f01602080910402602001604051908101604052809291908181526020018280546106a390613ae1565b80156106f05780601f106106c5576101008083540402835291602001916106f0565b820191906000526020600020905b8154815290600101906020018083116106d357829003601f168201915b5050505050905090565b600061070582611bfb565b610744576040517f08c379a000000000000000000000000000000000000000000000000000000000815260040161073b90613651565b60405180910390fd5b6004600083815260200190815260200160002060009054906101000a900473ffffffffffffffffffffffffffffffffffffffff169050919050565b600061078a82610917565b90508073ffffffffffffffffffffffffffffffffffffffff168373ffffffffffffffffffffffffffffffffffffffff1614156107fb576040517f08c379a00000000000000000000000000000000000000000000000000000000081526004016107f290613691565b60405180910390fd5b8073ffffffffffffffffffffffffffffffffffffffff1661081a611c67565b73ffffffffffffffffffffffffffffffffffffffff161480610849575061084881610843611c67565b611a23565b5b610888576040517f08c379a000000000000000000000000000000000000000000000000000000000815260040161087f90613591565b60405180910390fd5b6108928383611c6f565b505050565b6108a86108a2611c67565b82611d28565b6108e7576040517f08c379a00000000000000000000000000000000000000000000000000000000081526004016108de906136b1565b60405180910390fd5b6108f2838383611e06565b505050565b6109128383836040518060200160405280600081525061167b565b505050565b6000806002600084815260200190815260200160002060009054906101000a900473ffffffffffffffffffffffffffffffffffffffff169050600073ffffffffffffffffffffffffffffffffffffffff168173ffffffffffffffffffffffffffffffffffffffff1614156109c0576040517f08c379a00000000000000000000000000000000000000000000000000000000081526004016109b7906135d1565b60405180910390fd5b80915050919050565b60075481565b60008073ffffffffffffffffffffffffffffffffffffffff168273ffffffffffffffffffffffffffffffffffffffff161415610a40576040517f08c379a0000000000000000000000000000000000000000000000000000000008152600401610a37906135b1565b60405180910390fd5b600360008373ffffffffffffffffffffffffffffffffffffffff1673ffffffffffffffffffffffffffffffffffffffff168152602001908152602001600020549050919050565b60008111610a9457600080fd5b6000845111610aa257600080fd5b6000835111610ab057600080fd5b60076000815480929190610ac390613b44565b91905055506040518060c0016040528060075481526020018581526020018481526020018381526020018281526020013373ffffffffffffffffffffffffffffffffffffffff16815250600960006007548152602001908152602001600020600082015181600001556020820151816001019080519060200190610b489291906129ea565b506040820151816002019080519060200190610b659291906129ea565b506060820151816003019080519060200190610b829291906129ea565b506080820151816004015560a08201518160050160006101000a81548173ffffffffffffffffffffffffffffffffffffffff021916908373ffffffffffffffffffffffffffffffffffffffff1602179055509050507f41bee36a9de2b755dec32bc73591f8ea58c203b1d94b0e4b7379688cd3a9b4376007548585858533604051610c12969594939291906136ec565b60405180910390a150505050565b600080600080600080600b60009054906101000a900473ffffffffffffffffffffffffffffffffffffffff1673ffffffffffffffffffffffffffffffffffffffff1663feaf968c6040518163ffffffff167c010000000000000000000000000000000000000000000000000000000002815260040160a06040518083038186803b158015610cad57600080fd5b505afa158015610cc1573d6000803e3d6000fd5b505050506040513d601f19601f82011682018060405250810190610ce59190612f8d565b94509450945094509450839550505050505090565b606060018054610d0990613ae1565b80601f0160208091040260200160405190810160405280929190818152602001828054610d3590613ae1565b8015610d825780601f10610d5757610100808354040283529160200191610d82565b820191906000526020600020905b815481529060010190602001808311610d6557829003601f168201915b5050505050905090565b60088060000154905081565b610daa610da3611c67565b838361206d565b5050565b6000600960008481526020019081526020016000206040518060c001604052908160008201548152602001600182018054610de890613ae1565b80601f0160208091040260200160405190810160405280929190818152602001828054610e1490613ae1565b8015610e615780601f10610e3657610100808354040283529160200191610e61565b820191906000526020600020905b815481529060010190602001808311610e4457829003601f168201915b50505050508152602001600282018054610e7a90613ae1565b80601f0160208091040260200160405190810160405280929190818152602001828054610ea690613ae1565b8015610ef35780601f10610ec857610100808354040283529160200191610ef3565b820191906000526020600020905b815481529060010190602001808311610ed657829003601f168201915b50505050508152602001600382018054610f0c90613ae1565b80601f0160208091040260200160405190810160405280929190818152602001828054610f3890613ae1565b8015610f855780601f10610f5a57610100808354040283529160200191610f85565b820191906000526020600020905b815481529060010190602001808311610f6857829003601f168201915b50505050508152602001600482015481526020016005820160009054906101000a900473ffffffffffffffffffffffffffffffffffffffff1673ffffffffffffffffffffffffffffffffffffffff1673ffffffffffffffffffffffffffffffffffffffff16815250509050348160800151101561100157600080fd5b8060a0015173ffffffffffffffffffffffffffffffffffffffff166108fc349081150290604051600060405180830381858888f1935050505015801561104b573d6000803e3d6000fd5b5080600960008581526020019081526020016000206000820151816000015560208201518160010190805190602001906110869291906129ea565b5060408201518160020190805190602001906110a39291906129ea565b5060608201518160030190805190602001906110c09291906129ea565b506080820151816004015560a08201518160050160006101000a81548173ffffffffffffffffffffffffffffffffffffffff021916908373ffffffffffffffffffffffffffffffffffffffff16021790555090505061111f60086121da565b600061112b60086121f0565b905061113733826121fe565b611141818461221c565b600061114d60ff612290565b9050600061115b60ff612290565b9050600061116960ff612290565b90506040518060c001604052808581526020018660200151815260200184815260200183815260200182815260200134815250600a60008681526020019081526020016000206000820151816000015560208201518160010190805190602001906111d59291906129ea565b5060408201518160020155606082015181600301556080820151816004015560a08201518160050155905050600c60009054906101000a900473ffffffffffffffffffffffffffffffffffffffff1673ffffffffffffffffffffffffffffffffffffffff1663a9059cbb33674563918244f400006040518363ffffffff167c0100000000000000000000000000000000000000000000000000000000028152600401611282929190613450565b602060405180830381600087803b15801561129c57600080fd5b505af11580156112b0573d6000803e3d6000fd5b505050506040513d601f19601f820116820180604052508101906112d49190612dc1565b507fe0f30f0063e810abfd29bdbd765737a964912b2c3e6851450bb7ce2df6a3faf287348760800151338960a001516040516113149594939291906137ca565b60405180910390a150505050505050565b6000600c60009054906101000a900473ffffffffffffffffffffffffffffffffffffffff1673ffffffffffffffffffffffffffffffffffffffff166370a08231336040518263ffffffff167c010000000000000000000000000000000000000000000000000000000002815260040161139e91906133c0565b60206040518083038186803b1580156113b657600080fd5b505afa1580156113ca573d6000803e3d6000fd5b505050506040513d601f19601f820116820180604052508101906113ee9190612f10565b116113f857600080fd5b6000600a60008381526020019081526020016000206040518060c00160405290816000820154815260200160018201805461143290613ae1565b80601f016020809104026020016040519081016040528092919081815260200182805461145e90613ae1565b80156114ab5780601f10611480576101008083540402835291602001916114ab565b820191906000526020600020905b81548152906001019060200180831161148e57829003601f168201915b50505050508152602001600282015481526020016003820154815260200160048201548152602001600582015481525050905060006114ea60ff612290565b905060006114f860ff612290565b9050600061150660ff612290565b905082846040018181525050818460600181815250508084608001818152505083600a60008781526020019081526020016000206000820151816000015560208201518160010190805190602001906115609291906129ea565b5060408201518160020155606082015181600301556080820151816004015560a08201518160050155905050600c60009054906101000a900473ffffffffffffffffffffffffffffffffffffffff1673ffffffffffffffffffffffffffffffffffffffff16630ca56cff33306040518363ffffffff167c01000000000000000000000000000000000000000000000000000000000281526004016116059291906133db565b600060405180830381600087803b15801561161f57600080fd5b505af1158015611633573d6000803e3d6000fd5b505050507f4ce7be09e2c8d9421792ecd77d589ce026c9146baedd4faccb699c24df6628388584848460405161166c949392919061381d565b60405180910390a15050505050565b61168c611686611c67565b83611d28565b6116cb576040517f08c379a00000000000000000000000000000000000000000000000000000000081526004016116c2906136b1565b60405180910390fd5b6116d7848484846122d3565b50505050565b600960205280600052604060002060009150905080600001549080600101805461170690613ae1565b80601f016020809104026020016040519081016040528092919081815260200182805461173290613ae1565b801561177f5780601f106117545761010080835404028352916020019161177f565b820191906000526020600020905b81548152906001019060200180831161176257829003601f168201915b50505050509080600201805461179490613ae1565b80601f01602080910402602001604051908101604052809291908181526020018280546117c090613ae1565b801561180d5780601f106117e25761010080835404028352916020019161180d565b820191906000526020600020905b8154815290600101906020018083116117f057829003601f168201915b50505050509080600301805461182290613ae1565b80601f016020809104026020016040519081016040528092919081815260200182805461184e90613ae1565b801561189b5780601f106118705761010080835404028352916020019161189b565b820191906000526020600020905b81548152906001019060200180831161187e57829003601f168201915b5050505050908060040154908060050160009054906101000a900473ffffffffffffffffffffffffffffffffffffffff16905086565b60606118dc82611bfb565b61191b576040517f08c379a000000000000000000000000000000000000000000000000000000000815260040161191290613631565b60405180910390fd5b600060066000848152602001908152602001600020805461193b90613ae1565b80601f016020809104026020016040519081016040528092919081815260200182805461196790613ae1565b80156119b45780601f10611989576101008083540402835291602001916119b4565b820191906000526020600020905b81548152906001019060200180831161199757829003601f168201915b5050505050905060006119c561232f565b90506000815114156119db578192505050611a1e565b600082511115611a105780826040516020016119f892919061335f565b60405160208183030381529060405292505050611a1e565b611a1984612346565b925050505b919050565b6000600560008473ffffffffffffffffffffffffffffffffffffffff1673ffffffffffffffffffffffffffffffffffffffff16815260200190815260200160002060008373ffffffffffffffffffffffffffffffffffffffff1673ffffffffffffffffffffffffffffffffffffffff16815260200190815260200160002060009054906101000a900460ff16905092915050565b600080611ac460086121f0565b90508091505090565b600a602052806000526040600020600091509050806000015490806001018054611af690613ae1565b80601f0160208091040260200160405190810160405280929190818152602001828054611b2290613ae1565b8015611b6f5780601f10611b4457610100808354040283529160200191611b6f565b820191906000526020600020905b815481529060010190602001808311611b5257829003601f168201915b5050505050908060020154908060030154908060040154908060050154905086565b60007f01ffc9a7000000000000000000000000000000000000000000000000000000007bffffffffffffffffffffffffffffffffffffffffffffffffffffffff1916827bffffffffffffffffffffffffffffffffffffffffffffffffffffffff1916149050919050565b60008073ffffffffffffffffffffffffffffffffffffffff166002600084815260200190815260200160002060009054906101000a900473ffffffffffffffffffffffffffffffffffffffff1673ffffffffffffffffffffffffffffffffffffffff1614159050919050565b600033905090565b816004600083815260200190815260200160002060006101000a81548173ffffffffffffffffffffffffffffffffffffffff021916908373ffffffffffffffffffffffffffffffffffffffff160217905550808273ffffffffffffffffffffffffffffffffffffffff16611ce283610917565b73ffffffffffffffffffffffffffffffffffffffff167f8c5be1e5ebec7d5bd14f71427d1e84f3dd0314c0f7b2291e5b200ac8c7c3b92560405160405180910390a45050565b6000611d3382611bfb565b611d72576040517f08c379a0000000000000000000000000000000000000000000000000000000008152600401611d6990613571565b60405180910390fd5b6000611d7d83610917565b90508073ffffffffffffffffffffffffffffffffffffffff168473ffffffffffffffffffffffffffffffffffffffff161480611dec57508373ffffffffffffffffffffffffffffffffffffffff16611dd4846106fa565b73ffffffffffffffffffffffffffffffffffffffff16145b80611dfd5750611dfc8185611a23565b5b91505092915050565b8273ffffffffffffffffffffffffffffffffffffffff16611e2682610917565b73ffffffffffffffffffffffffffffffffffffffff1614611e7c576040517f08c379a0000000000000000000000000000000000000000000000000000000008152600401611e73906134f1565b60405180910390fd5b600073ffffffffffffffffffffffffffffffffffffffff168273ffffffffffffffffffffffffffffffffffffffff161415611eec576040517f08c379a0000000000000000000000000000000000000000000000000000000008152600401611ee390613531565b60405180910390fd5b611ef78383836123ed565b611f02600082611c6f565b6001600360008573ffffffffffffffffffffffffffffffffffffffff1673ffffffffffffffffffffffffffffffffffffffff1681526020019081526020016000206000828254611f5291906139b3565b925050819055506001600360008473ffffffffffffffffffffffffffffffffffffffff1673ffffffffffffffffffffffffffffffffffffffff1681526020019081526020016000206000828254611fa9919061392c565b92505081905550816002600083815260200190815260200160002060006101000a81548173ffffffffffffffffffffffffffffffffffffffff021916908373ffffffffffffffffffffffffffffffffffffffff160217905550808273ffffffffffffffffffffffffffffffffffffffff168473ffffffffffffffffffffffffffffffffffffffff167fddf252ad1be2c89b69c2b068fc378daa952ba7f163c4a11628f55a4df523b3ef60405160405180910390a46120688383836123f2565b505050565b8173ffffffffffffffffffffffffffffffffffffffff168373ffffffffffffffffffffffffffffffffffffffff1614156120dc576040517f08c379a00000000000000000000000000000000000000000000000000000000081526004016120d390613551565b60405180910390fd5b80600560008573ffffffffffffffffffffffffffffffffffffffff1673ffffffffffffffffffffffffffffffffffffffff16815260200190815260200160002060008473ffffffffffffffffffffffffffffffffffffffff1673ffffffffffffffffffffffffffffffffffffffff16815260200190815260200160002060006101000a81548160ff0219169083151502179055508173ffffffffffffffffffffffffffffffffffffffff168373ffffffffffffffffffffffffffffffffffffffff167f17307eab39ab6107e8899845ad3d59bd9653f200f220920489ca2b5937696c31836040516121cd9190613479565b60405180910390a3505050565b6001816000016000828254019250508190555050565b600081600001549050919050565b6122188282604051806020016040528060008152506123f7565b5050565b61222582611bfb565b612264576040517f08c379a000000000000000000000000000000000000000000000000000000000815260040161225b906135f1565b60405180910390fd5b8060066000848152602001908152602001600020908051906020019061228b9291906129ea565b505050565b6000814244336040516020016122a893929190613383565b60405160208183030381529060405280519060200120600190046122cc9190613bbb565b9050919050565b6122de848484611e06565b6122ea84848484612452565b612329576040517f08c379a0000000000000000000000000000000000000000000000000000000008152600401612320906134d1565b60405180910390fd5b50505050565b606060405180602001604052806000815250905090565b606061235182611bfb565b612390576040517f08c379a000000000000000000000000000000000000000000000000000000000815260040161238790613671565b60405180910390fd5b600061239a61232f565b905060008151116123ba57604051806020016040528060008152506123e5565b806123c484612621565b6040516020016123d592919061335f565b6040516020818303038152906040525b915050919050565b505050565b505050565b61240183836127ed565b61240e6000848484612452565b61244d576040517f08c379a0000000000000000000000000000000000000000000000000000000008152600401612444906134d1565b60405180910390fd5b505050565b60006124738473ffffffffffffffffffffffffffffffffffffffff166129c7565b15612614578373ffffffffffffffffffffffffffffffffffffffff1663150b7a0261249c611c67565b8786866040518563ffffffff167c01000000000000000000000000000000000000000000000000000000000281526004016124da9493929190613404565b602060405180830381600087803b1580156124f457600080fd5b505af192505050801561252557506040513d601f19601f820116820180604052508101906125229190612e13565b60015b6125a8573d8060008114612555576040519150601f19603f3d011682016040523d82523d6000602084013e61255a565b606091505b506000815114156125a0576040517f08c379a0000000000000000000000000000000000000000000000000000000008152600401612597906134d1565b60405180910390fd5b805181602001fd5b63150b7a027c0100000000000000000000000000000000000000000000000000000000027bffffffffffffffffffffffffffffffffffffffffffffffffffffffff1916817bffffffffffffffffffffffffffffffffffffffffffffffffffffffff191614915050612619565b600190505b949350505050565b60606000821415612669576040518060400160405280600181526020017f300000000000000000000000000000000000000000000000000000000000000081525090506127e8565b600082905060005b6000821461269b57808061268490613b44565b915050600a826126949190613982565b9150612671565b60008167ffffffffffffffff8111156126dd577f4e487b7100000000000000000000000000000000000000000000000000000000600052604160045260246000fd5b6040519080825280601f01601f19166020018201604052801561270f5781602001600182028036833780820191505090505b5090505b600085146127e15760018261272891906139b3565b9150600a856127379190613bbb565b6030612743919061392c565b7f01000000000000000000000000000000000000000000000000000000000000000281838151811061279e577f4e487b7100000000000000000000000000000000000000000000000000000000600052603260045260246000fd5b60200101907effffffffffffffffffffffffffffffffffffffffffffffffffffffffffffff1916908160001a905350600a856127da9190613982565b9450612713565b8093505050505b919050565b600073ffffffffffffffffffffffffffffffffffffffff168273ffffffffffffffffffffffffffffffffffffffff16141561285d576040517f08c379a000000000000000000000000000000000000000000000000000000000815260040161285490613611565b60405180910390fd5b61286681611bfb565b156128a6576040517f08c379a000000000000000000000000000000000000000000000000000000000815260040161289d90613511565b60405180910390fd5b6128b2600083836123ed565b6001600360008473ffffffffffffffffffffffffffffffffffffffff1673ffffffffffffffffffffffffffffffffffffffff1681526020019081526020016000206000828254612902919061392c565b92505081905550816002600083815260200190815260200160002060006101000a81548173ffffffffffffffffffffffffffffffffffffffff021916908373ffffffffffffffffffffffffffffffffffffffff160217905550808273ffffffffffffffffffffffffffffffffffffffff16600073ffffffffffffffffffffffffffffffffffffffff167fddf252ad1be2c89b69c2b068fc378daa952ba7f163c4a11628f55a4df523b3ef60405160405180910390a46129c3600083836123f2565b5050565b6000808273ffffffffffffffffffffffffffffffffffffffff163b119050919050565b8280546129f690613ae1565b90600052602060002090601f016020900481019282612a185760008555612a5f565b82601f10612a3157805160ff1916838001178555612a5f565b82800160010185558215612a5f579182015b82811115612a5e578251825591602001919060010190612a43565b5b509050612a6c9190612a70565b5090565b5b80821115612a89576000816000905550600101612a71565b5090565b6000612aa0612a9b84613887565b613862565b905082815260208101848484011115612ab857600080fd5b612ac3848285613a9f565b509392505050565b6000612ade612ad9846138b8565b613862565b905082815260208101848484011115612af657600080fd5b612b01848285613a9f565b509392505050565b600081359050612b1881614150565b92915050565b600081359050612b2d81614167565b92915050565b600081519050612b4281614167565b92915050565b600081359050612b578161417e565b92915050565b600081519050612b6c8161417e565b92915050565b600082601f830112612b8357600080fd5b8135612b93848260208601612a8d565b91505092915050565b600081519050612bab81614195565b92915050565b600082601f830112612bc257600080fd5b8135612bd2848260208601612acb565b91505092915050565b600081359050612bea816141ac565b92915050565b600081519050612bff816141ac565b92915050565b600081519050612c14816141c3565b92915050565b600060208284031215612c2c57600080fd5b6000612c3a84828501612b09565b91505092915050565b60008060408385031215612c5657600080fd5b6000612c6485828601612b09565b9250506020612c7585828601612b09565b9150509250929050565b600080600060608486031215612c9457600080fd5b6000612ca286828701612b09565b9350506020612cb386828701612b09565b9250506040612cc486828701612bdb565b9150509250925092565b60008060008060808587031215612ce457600080fd5b6000612cf287828801612b09565b9450506020612d0387828801612b09565b9350506040612d1487828801612bdb565b925050606085013567ffffffffffffffff811115612d3157600080fd5b612d3d87828801612b72565b91505092959194509250565b60008060408385031215612d5c57600080fd5b6000612d6a85828601612b09565b9250506020612d7b85828601612b1e565b9150509250929050565b60008060408385031215612d9857600080fd5b6000612da685828601612b09565b9250506020612db785828601612bdb565b9150509250929050565b600060208284031215612dd357600080fd5b6000612de184828501612b33565b91505092915050565b600060208284031215612dfc57600080fd5b6000612e0a84828501612b48565b91505092915050565b600060208284031215612e2557600080fd5b6000612e3384828501612b5d565b91505092915050565b60008060008060808587031215612e5257600080fd5b600085013567ffffffffffffffff811115612e6c57600080fd5b612e7887828801612bb1565b945050602085013567ffffffffffffffff811115612e9557600080fd5b612ea187828801612bb1565b935050604085013567ffffffffffffffff811115612ebe57600080fd5b612eca87828801612bb1565b9250506060612edb87828801612bdb565b91505092959194509250565b600060208284031215612ef957600080fd5b6000612f0784828501612bdb565b91505092915050565b600060208284031215612f2257600080fd5b6000612f3084828501612bf0565b91505092915050565b60008060408385031215612f4c57600080fd5b6000612f5a85828601612bdb565b925050602083013567ffffffffffffffff811115612f7757600080fd5b612f8385828601612bb1565b9150509250929050565b600080600080600060a08688031215612fa557600080fd5b6000612fb388828901612c05565b9550506020612fc488828901612b9c565b9450506040612fd588828901612bf0565b9350506060612fe688828901612bf0565b9250506080612ff788828901612c05565b9150509295509295909350565b61300d816139f9565b82525050565b61301c816139e7565b82525050565b61303361302e826139e7565b613b8d565b82525050565b61304281613a0b565b82525050565b6000613053826138e9565b61305d81856138ff565b935061306d818560208601613aae565b61307681613ca8565b840191505092915050565b61308a81613a43565b82525050565b61309981613a8d565b82525050565b60006130aa826138f4565b6130b48185613910565b93506130c4818560208601613aae565b6130cd81613ca8565b840191505092915050565b60006130e3826138f4565b6130ed8185613921565b93506130fd818560208601613aae565b80840191505092915050565b6000613116603283613910565b915061312182613cd2565b604082019050919050565b6000613139602583613910565b915061314482613d21565b604082019050919050565b600061315c601c83613910565b915061316782613d70565b602082019050919050565b600061317f602483613910565b915061318a82613d99565b604082019050919050565b60006131a2601983613910565b91506131ad82613de8565b602082019050919050565b60006131c5602c83613910565b91506131d082613e11565b604082019050919050565b60006131e8603883613910565b91506131f382613e60565b604082019050919050565b600061320b602a83613910565b915061321682613eaf565b604082019050919050565b600061322e602983613910565b915061323982613efe565b604082019050919050565b6000613251602e83613910565b915061325c82613f4d565b604082019050919050565b6000613274602083613910565b915061327f82613f9c565b602082019050919050565b6000613297603183613910565b91506132a282613fc5565b604082019050919050565b60006132ba602c83613910565b91506132c582614014565b604082019050919050565b60006132dd602f83613910565b91506132e882614063565b604082019050919050565b6000613300602183613910565b915061330b826140b2565b604082019050919050565b6000613323603183613910565b915061332e82614101565b604082019050919050565b61334281613a6d565b82525050565b61335961335482613a6d565b613bb1565b82525050565b600061336b82856130d8565b915061337782846130d8565b91508190509392505050565b600061338f8286613348565b60208201915061339f8285613348565b6020820191506133af8284613022565b601482019150819050949350505050565b60006020820190506133d56000830184613013565b92915050565b60006040820190506133f06000830185613013565b6133fd6020830184613013565b9392505050565b60006080820190506134196000830187613013565b6134266020830186613013565b6134336040830185613339565b81810360608301526134458184613048565b905095945050505050565b60006040820190506134656000830185613013565b6134726020830184613090565b9392505050565b600060208201905061348e6000830184613039565b92915050565b60006020820190506134a96000830184613081565b92915050565b600060208201905081810360008301526134c9818461309f565b905092915050565b600060208201905081810360008301526134ea81613109565b9050919050565b6000602082019050818103600083015261350a8161312c565b9050919050565b6000602082019050818103600083015261352a8161314f565b9050919050565b6000602082019050818103600083015261354a81613172565b9050919050565b6000602082019050818103600083015261356a81613195565b9050919050565b6000602082019050818103600083015261358a816131b8565b9050919050565b600060208201905081810360008301526135aa816131db565b9050919050565b600060208201905081810360008301526135ca816131fe565b9050919050565b600060208201905081810360008301526135ea81613221565b9050919050565b6000602082019050818103600083015261360a81613244565b9050919050565b6000602082019050818103600083015261362a81613267565b9050919050565b6000602082019050818103600083015261364a8161328a565b9050919050565b6000602082019050818103600083015261366a816132ad565b9050919050565b6000602082019050818103600083015261368a816132d0565b9050919050565b600060208201905081810360008301526136aa816132f3565b9050919050565b600060208201905081810360008301526136ca81613316565b9050919050565b60006020820190506136e66000830184613339565b92915050565b600060c0820190506137016000830189613339565b8181036020830152613713818861309f565b90508181036040830152613727818761309f565b9050818103606083015261373b818661309f565b905061374a6080830185613339565b61375760a0830184613004565b979650505050505050565b600060c0820190506137776000830189613339565b8181036020830152613789818861309f565b90506137986040830187613339565b6137a56060830186613339565b6137b26080830185613339565b6137bf60a0830184613339565b979650505050505050565b600060a0820190506137df6000830188613339565b6137ec6020830187613339565b6137f96040830186613339565b6138066060830185613013565b6138136080830184613004565b9695505050505050565b60006080820190506138326000830187613339565b61383f6020830186613339565b61384c6040830185613339565b6138596060830184613339565b95945050505050565b600061386c61387d565b90506138788282613b13565b919050565b6000604051905090565b600067ffffffffffffffff8211156138a2576138a1613c79565b5b6138ab82613ca8565b9050602081019050919050565b600067ffffffffffffffff8211156138d3576138d2613c79565b5b6138dc82613ca8565b9050602081019050919050565b600081519050919050565b600081519050919050565b600082825260208201905092915050565b600082825260208201905092915050565b600081905092915050565b600061393782613a6d565b915061394283613a6d565b9250827fffffffffffffffffffffffffffffffffffffffffffffffffffffffffffffffff0382111561397757613976613bec565b5b828201905092915050565b600061398d82613a6d565b915061399883613a6d565b9250826139a8576139a7613c1b565b5b828204905092915050565b60006139be82613a6d565b91506139c983613a6d565b9250828210156139dc576139db613bec565b5b828203905092915050565b60006139f282613a4d565b9050919050565b6000613a0482613a4d565b9050919050565b60008115159050919050565b60007fffffffff0000000000000000000000000000000000000000000000000000000082169050919050565b6000819050919050565b600073ffffffffffffffffffffffffffffffffffffffff82169050919050565b6000819050919050565b600069ffffffffffffffffffff82169050919050565b6000613a9882613a6d565b9050919050565b82818337600083830152505050565b60005b83811015613acc578082015181840152602081019050613ab1565b83811115613adb576000848401525b50505050565b60006002820490506001821680613af957607f821691505b60208210811415613b0d57613b0c613c4a565b5b50919050565b613b1c82613ca8565b810181811067ffffffffffffffff82111715613b3b57613b3a613c79565b5b80604052505050565b6000613b4f82613a6d565b91507fffffffffffffffffffffffffffffffffffffffffffffffffffffffffffffffff821415613b8257613b81613bec565b5b600182019050919050565b6000613b9882613b9f565b9050919050565b6000613baa82613cb9565b9050919050565b6000819050919050565b6000613bc682613a6d565b9150613bd183613a6d565b925082613be157613be0613c1b565b5b828206905092915050565b7f4e487b7100000000000000000000000000000000000000000000000000000000600052601160045260246000fd5b7f4e487b7100000000000000000000000000000000000000000000000000000000600052601260045260246000fd5b7f4e487b7100000000000000000000000000000000000000000000000000000000600052602260045260246000fd5b7f4e487b7100000000000000000000000000000000000000000000000000000000600052604160045260246000fd5b6000601f19601f8301169050919050565b60006c0100000000000000000000000082029050919050565b7f4552433732313a207472616e7366657220746f206e6f6e20455243373231526560008201527f63656976657220696d706c656d656e7465720000000000000000000000000000602082015250565b7f4552433732313a207472616e736665722066726f6d20696e636f72726563742060008201527f6f776e6572000000000000000000000000000000000000000000000000000000602082015250565b7f4552433732313a20746f6b656e20616c7265616479206d696e74656400000000600082015250565b7f4552433732313a207472616e7366657220746f20746865207a65726f2061646460008201527f7265737300000000000000000000000000000000000000000000000000000000602082015250565b7f4552433732313a20617070726f766520746f2063616c6c657200000000000000600082015250565b7f4552433732313a206f70657261746f7220717565727920666f72206e6f6e657860008201527f697374656e7420746f6b656e0000000000000000000000000000000000000000602082015250565b7f4552433732313a20617070726f76652063616c6c6572206973206e6f74206f7760008201527f6e6572206e6f7220617070726f76656420666f7220616c6c0000000000000000602082015250565b7f4552433732313a2062616c616e636520717565727920666f7220746865207a6560008201527f726f206164647265737300000000000000000000000000000000000000000000602082015250565b7f4552433732313a206f776e657220717565727920666f72206e6f6e657869737460008201527f656e7420746f6b656e0000000000000000000000000000000000000000000000602082015250565b7f45524337323155524953746f726167653a2055524920736574206f66206e6f6e60008201527f6578697374656e7420746f6b656e000000000000000000000000000000000000602082015250565b7f4552433732313a206d696e7420746f20746865207a65726f2061646472657373600082015250565b7f45524337323155524953746f726167653a2055524920717565727920666f722060008201527f6e6f6e6578697374656e7420746f6b656e000000000000000000000000000000602082015250565b7f4552433732313a20617070726f76656420717565727920666f72206e6f6e657860008201527f697374656e7420746f6b656e0000000000000000000000000000000000000000602082015250565b7f4552433732314d657461646174613a2055524920717565727920666f72206e6f60008201527f6e6578697374656e7420746f6b656e0000000000000000000000000000000000602082015250565b7f4552433732313a20617070726f76616c20746f2063757272656e74206f776e6560008201527f7200000000000000000000000000000000000000000000000000000000000000602082015250565b7f4552433732313a207472616e736665722063616c6c6572206973206e6f74206f60008201527f776e6572206e6f7220617070726f766564000000000000000000000000000000602082015250565b614159816139e7565b811461416457600080fd5b50565b61417081613a0b565b811461417b57600080fd5b50565b61418781613a17565b811461419257600080fd5b50565b61419e81613a43565b81146141a957600080fd5b50565b6141b581613a6d565b81146141c057600080fd5b50565b6141cc81613a77565b81146141d757600080fd5b5056fea2646970667358221220a03c8f1f8bcf62f14302d0a5b27164ef134c86311ab501a0675dee85761f8db564736f6c63430008040033",
  "immutableReferences": {},
  "source": "// SPDX-License-Identifier: GPL-3.0\r\n\r\npragma solidity ^0.8.0;\r\n\r\nimport \"@openzeppelin/contracts/token/ERC721/ERC721.sol\";\r\nimport \"@openzeppelin/contracts/token/ERC721/extensions/ERC721URIStorage.sol\";\r\nimport \"@openzeppelin/contracts/utils/Counters.sol\";\r\nimport \"./AggregatorV3Interface.sol\";\r\nimport \"./Token.sol\";\r\n\r\n/**\r\n   * Network: Kovan Testnet\r\n   * Aggregator: ETH/USD\r\n   * Address: 0x9326BFA02ADD2366b30bacB125260Af641031331\r\n   */\r\n  /**\r\n   * Network: Rinkeby Testnet\r\n   * Aggregator: ETH/USD\r\n   * Address: 0x8A753747A1Fa494EC906cE90E9f37563A8AF630e\r\n   */\r\n  /**\r\n   * Network: Mumbai Testnet\r\n   * Aggregator: MATIC/USD\r\n   * Address: 0xd0D5e3DB44DE05E9F294BB0a3bEEaF030DE24Ada\r\n   */\r\n\r\ncontract Items is ERC721URIStorage{\r\n    using Counters for Counters.Counter;\r\n    uint public itemCount = 0;\r\n    Counters.Counter public _rewardId;\r\n\r\n    mapping(uint => Item) public items;\r\n    mapping(uint => Reward) public rewards;\r\n\r\n    AggregatorV3Interface internal priceFeed;\r\n\r\n    Token private token;\r\n\r\n    constructor(Token _token) ERC721(\"Pizzenia\" , \"PZN\"){\r\n        token = _token;\r\n        priceFeed = AggregatorV3Interface(0xd0D5e3DB44DE05E9F294BB0a3bEEaF030DE24Ada);\r\n    }\r\n\r\n    //Creating a Pizza\r\n    struct Item{\r\n        uint itemId;\r\n        string name;\r\n        string description;\r\n        string imageURL;\r\n        uint prize;\r\n        address payable owner;\r\n    }\r\n\r\n    //Reward for the user\r\n    struct Reward{\r\n        uint rewardId;\r\n        string name;\r\n        uint red;\r\n        uint green;\r\n        uint blue;\r\n        uint prize;\r\n    }\r\n\r\n    //Pizza created\r\n    event ItemCreated(\r\n        uint itemId,\r\n        string name,\r\n        string description,\r\n        string imageURL,\r\n        uint prize,\r\n        address payable owner\r\n    );\r\n\r\n\r\n    //Payment of User to Pizzenia\r\n    event Payment(\r\n        uint itemId,\r\n        uint amount,\r\n        uint prize,\r\n        address from,\r\n        address payable owner\r\n    );\r\n\r\n    //Changing RGB Color\r\n    event RGBColor(\r\n        uint itemId,\r\n        uint red,\r\n        uint green,\r\n        uint blue\r\n    );\r\n\r\n    //function for creating a item\r\n    function createItem(string memory _name , string memory _description , string memory _imageURL , uint _prize ) public {\r\n        require(_prize > 0);\r\n        require(bytes(_name).length>0);\r\n        require(bytes(_description).length>0);\r\n        \r\n        itemCount++;\r\n\r\n        items[itemCount] = Item(itemCount,_name,_description,_imageURL,_prize,payable(msg.sender));\r\n        emit ItemCreated(itemCount,_name,_description,_imageURL,_prize,payable(msg.sender));\r\n    }\r\n\r\n    //function for payment by user and assigning him the reward\r\n    function paymentwithReward(uint _itemId,string memory _tokenURI) public payable{\r\n        Item memory _item = items[_itemId];\r\n\r\n        require(_item.prize >= msg.value);\r\n        _item.owner.transfer(msg.value);\r\n\r\n        items[_itemId] = _item;\r\n\r\n        //Reward for the user\r\n        _rewardId.increment();\r\n        uint newRewardId = _rewardId.current();\r\n        _safeMint(msg.sender,newRewardId);\r\n        _setTokenURI(newRewardId,_tokenURI);\r\n\r\n        //Random RGB values\r\n        uint red = getRandomValue(255);\r\n        uint green = getRandomValue(255);\r\n        uint blue = getRandomValue(255);\r\n\r\n        rewards[newRewardId] = Reward(newRewardId,_item.name,red,green,blue,msg.value);\r\n\r\n        //Giving Pizzenia Tokens to the User\r\n        token.transfer(msg.sender,5000000000000000000);\r\n\r\n        emit Payment(_itemId,msg.value,_item.prize,msg.sender,_item.owner);\r\n          \r\n    }\r\n\r\n    //function for generating random number\r\n    function getRandomValue(uint mod) internal view returns(uint) {\r\n        return uint(keccak256(abi.encodePacked(block.timestamp, block.difficulty, msg.sender))) % mod;\r\n    }\r\n\r\n    //function for changing colors for the reward earned\r\n    function changeRewardColor(uint _tokenId) external {\r\n        require(token.balanceOf(msg.sender)>0);\r\n        \r\n        Reward memory _reward = rewards[_tokenId];\r\n        uint red = getRandomValue(255);\r\n        uint green = getRandomValue(255);\r\n        uint blue = getRandomValue(255);\r\n        _reward.red = red;\r\n        _reward.green = green;\r\n        _reward.blue = blue;\r\n        rewards[_tokenId] = _reward;\r\n\r\n        token.payOneToken(msg.sender,address(this));\r\n        emit RGBColor(_tokenId,red,green,blue);\r\n\r\n    }\r\n\r\n\r\n    //getting latest price feeds via chainlink\r\n    function getLatestPrice() public view returns (int) {\r\n    (\r\n        uint80 roundID, \r\n        int price,\r\n        uint startedAt,\r\n        uint timeStamp,\r\n        uint80 answeredInRound\r\n    ) = priceFeed.latestRoundData();\r\n        return price;\r\n    }\r\n\r\n    //Fetching Rewards of User\r\n    function fetchRewards() public view returns(uint){\r\n        uint totalCount = _rewardId.current();\r\n        // int itemCount = 0;\r\n        // uint currentIndex = 0;\r\n        // for(uint i=0;i<totalCount;i++){\r\n        //     if(items[i+1].owner == msg.sender){\r\n        //         itemCount++;\r\n        //     }\r\n        // }\r\n\r\n        return totalCount;\r\n    }\r\n\r\n\r\n}",
  "sourcePath": "C:/Users/ACER/Desktop/Projects/Semicolons/Testing/starter_dynamic_nfts/contracts/Items.sol",
  "compiler": {
    "name": "solc",
    "version": "0.8.4+commit.c7e474f2.Emscripten.clang"
  },
  "schemaVersion": "3.4.1",
  "updatedAt": "2022-03-08T11:17:09.248Z",
  "networkType": "ethereum",
  "devdoc": {
    "kind": "dev",
    "methods": {
      "approve(address,uint256)": {
        "details": "See {IERC721-approve}."
      },
      "balanceOf(address)": {
        "details": "See {IERC721-balanceOf}."
      },
      "getApproved(uint256)": {
        "details": "See {IERC721-getApproved}."
      },
      "isApprovedForAll(address,address)": {
        "details": "See {IERC721-isApprovedForAll}."
      },
      "name()": {
        "details": "See {IERC721Metadata-name}."
      },
      "ownerOf(uint256)": {
        "details": "See {IERC721-ownerOf}."
      },
      "safeTransferFrom(address,address,uint256)": {
        "details": "See {IERC721-safeTransferFrom}."
      },
      "safeTransferFrom(address,address,uint256,bytes)": {
        "details": "See {IERC721-safeTransferFrom}."
      },
      "setApprovalForAll(address,bool)": {
        "details": "See {IERC721-setApprovalForAll}."
      },
      "supportsInterface(bytes4)": {
        "details": "See {IERC165-supportsInterface}."
      },
      "symbol()": {
        "details": "See {IERC721Metadata-symbol}."
      },
      "tokenURI(uint256)": {
        "details": "See {IERC721Metadata-tokenURI}."
      },
      "transferFrom(address,address,uint256)": {
        "details": "See {IERC721-transferFrom}."
      }
    },
    "version": 1
  },
  "userdoc": {
    "kind": "user",
    "methods": {},
    "notice": "Network: Mumbai Testnet Aggregator: MATIC/USD Address: 0xd0D5e3DB44DE05E9F294BB0a3bEEaF030DE24Ada",
    "version": 1
  }
}