{
  "contractName": "Random",
  "abi": [
    {
      "inputs": [],
      "stateMutability": "nonpayable",
      "type": "constructor"
    },
    {
      "inputs": [],
      "name": "randomResult",
      "outputs": [
        {
          "internalType": "uint256",
          "name": "",
          "type": "uint256"
        }
      ],
      "stateMutability": "view",
      "type": "function",
      "constant": true
    },
    {
      "inputs": [
        {
          "internalType": "bytes32",
          "name": "requestId",
          "type": "bytes32"
        },
        {
          "internalType": "uint256",
          "name": "randomness",
          "type": "uint256"
        }
      ],
      "name": "rawFulfillRandomness",
      "outputs": [],
      "stateMutability": "nonpayable",
      "type": "function"
    },
    {
      "inputs": [],
      "name": "getRandomNumber",
      "outputs": [
        {
          "internalType": "bytes32",
          "name": "requestId",
          "type": "bytes32"
        }
      ],
      "stateMutability": "nonpayable",
      "type": "function"
    },
    {
      "inputs": [],
      "name": "getRandom",
      "outputs": [
        {
          "internalType": "uint256",
          "name": "",
          "type": "uint256"
        }
      ],
      "stateMutability": "view",
      "type": "function",
      "constant": true
    }
  ],
  "bytecode": "0x60c060405234801561001057600080fd5b50738c7382f9d8f56b33781fe506e897a4f1e2d1725573326c977e6efc84e512bb9c30f76e30c160ed06fb8173ffffffffffffffffffffffffffffffffffffffff1660a08173ffffffffffffffffffffffffffffffffffffffff166c0100000000000000000000000002815250508073ffffffffffffffffffffffffffffffffffffffff1660808173ffffffffffffffffffffffffffffffffffffffff166c01000000000000000000000000028152505050507f6e75b569a01ef56d18cab6a8e71e6600d6ce853834d4a5748b720d06f878b3a4600102600181905550655af3107a40006002819055506080516c01000000000000000000000000900460a0516c010000000000000000000000009004610ab561014c6000396000818160ec01526103360152600081816101b401526102fa0152610ab56000f3fe608060405234801561001057600080fd5b5060043610610069576000357c01000000000000000000000000000000000000000000000000000000009004806342619f661461006e57806394985ddd1461008c578063aacc5a17146100a8578063dbdff2c1146100c6575b600080fd5b6100766100e4565b60405161008391906107eb565b60405180910390f35b6100a660048036038101906100a1919061055e565b6100ea565b005b6100b0610186565b6040516100bd91906107eb565b60405180910390f35b6100ce6101ad565b6040516100db9190610722565b60405180910390f35b60035481565b7f000000000000000000000000000000000000000000000000000000000000000073ffffffffffffffffffffffffffffffffffffffff163373ffffffffffffffffffffffffffffffffffffffff1614610178576040517f08c379a000000000000000000000000000000000000000000000000000000000815260040161016f906107cb565b60405180910390fd5b61018282826102ca565b5050565b6000806001600560035461019a9190610922565b6101a49190610833565b90508091505090565b60006002547f000000000000000000000000000000000000000000000000000000000000000073ffffffffffffffffffffffffffffffffffffffff166370a08231306040518263ffffffff167c010000000000000000000000000000000000000000000000000000000002815260040161022791906106c9565b60206040518083038186803b15801561023f57600080fd5b505afa158015610253573d6000803e3d6000fd5b505050506040513d601f19601f82011682018060405250810190610277919061059a565b116102b7576040517f08c379a00000000000000000000000000000000000000000000000000000000081526004016102ae906107ab565b60405180910390fd5b6102c56001546002546102f6565b905090565b600082905082905060016005836102e19190610922565b6102eb9190610833565b600381905550505050565b60007f000000000000000000000000000000000000000000000000000000000000000073ffffffffffffffffffffffffffffffffffffffff16634000aea07f00000000000000000000000000000000000000000000000000000000000000008486600060405160200161036a92919061073d565b6040516020818303038152906040526040518463ffffffff167c01000000000000000000000000000000000000000000000000000000000281526004016103b3939291906106e4565b602060405180830381600087803b1580156103cd57600080fd5b505af11580156103e1573d6000803e3d6000fd5b505050506040513d601f19601f820116820180604052508101906104059190610535565b5060006104278460003060008089815260200190815260200160002054610471565b90506001600080868152602001908152602001600020546104489190610833565b6000808681526020019081526020016000208190555061046884826104ae565b91505092915050565b60008484848460405160200161048a9493929190610766565b60405160208183030381529060405280519060200120600190049050949350505050565b600082826040516020016104c392919061069d565b60405160208183030381529060405280519060200120905092915050565b6000815190506104f081610a3a565b92915050565b60008135905061050581610a51565b92915050565b60008135905061051a81610a68565b92915050565b60008151905061052f81610a68565b92915050565b60006020828403121561054757600080fd5b6000610555848285016104e1565b91505092915050565b6000806040838503121561057157600080fd5b600061057f858286016104f6565b92505060206105908582860161050b565b9150509250929050565b6000602082840312156105ac57600080fd5b60006105ba84828501610520565b91505092915050565b6105cc81610889565b82525050565b6105db816108a7565b82525050565b6105f26105ed826108a7565b61090e565b82525050565b600061060382610806565b61060d8185610811565b935061061d8185602086016108db565b610626816109b1565b840191505092915050565b600061063e602b83610822565b9150610649826109c2565b604082019050919050565b6000610661601f83610822565b915061066c82610a11565b602082019050919050565b610680816108d1565b82525050565b610697610692826108d1565b610918565b82525050565b60006106a982856105e1565b6020820191506106b98284610686565b6020820191508190509392505050565b60006020820190506106de60008301846105c3565b92915050565b60006060820190506106f960008301866105c3565b6107066020830185610677565b818103604083015261071881846105f8565b9050949350505050565b600060208201905061073760008301846105d2565b92915050565b600060408201905061075260008301856105d2565b61075f6020830184610677565b9392505050565b600060808201905061077b60008301876105d2565b6107886020830186610677565b61079560408301856105c3565b6107a26060830184610677565b95945050505050565b600060208201905081810360008301526107c481610631565b9050919050565b600060208201905081810360008301526107e481610654565b9050919050565b60006020820190506108006000830184610677565b92915050565b600081519050919050565b600082825260208201905092915050565b600082825260208201905092915050565b600061083e826108d1565b9150610849836108d1565b9250827fffffffffffffffffffffffffffffffffffffffffffffffffffffffffffffffff0382111561087e5761087d610953565b5b828201905092915050565b6000610894826108b1565b9050919050565b60008115159050919050565b6000819050919050565b600073ffffffffffffffffffffffffffffffffffffffff82169050919050565b6000819050919050565b60005b838110156108f95780820151818401526020810190506108de565b83811115610908576000848401525b50505050565b6000819050919050565b6000819050919050565b600061092d826108d1565b9150610938836108d1565b92508261094857610947610982565b5b828206905092915050565b7f4e487b7100000000000000000000000000000000000000000000000000000000600052601160045260246000fd5b7f4e487b7100000000000000000000000000000000000000000000000000000000600052601260045260246000fd5b6000601f19601f8301169050919050565b7f4e6f7420656e6f756768204c494e4b202d2066696c6c20636f6e74726163742060008201527f7769746820666175636574000000000000000000000000000000000000000000602082015250565b7f4f6e6c7920565246436f6f7264696e61746f722063616e2066756c66696c6c00600082015250565b610a438161089b565b8114610a4e57600080fd5b50565b610a5a816108a7565b8114610a6557600080fd5b50565b610a71816108d1565b8114610a7c57600080fd5b5056fea264697066735822122075023365c76011b3694b7a6b9f81cf6b22e61404c950f1d79f8ef2383f28ab7b64736f6c63430008040033",
  "immutableReferences": {
    "779": [
      {
        "length": 32,
        "start": 436
      },
      {
        "length": 32,
        "start": 762
      }
    ],
    "781": [
      {
        "length": 32,
        "start": 236
      },
      {
        "length": 32,
        "start": 822
      }
    ]
  },
  "source": "// SPDX-License-Identifier: MIT\r\npragma solidity ^0.8.0;\r\n\r\nimport \"@chainlink/contracts/src/v0.8/VRFConsumerBase.sol\";\r\n\r\ncontract Random is VRFConsumerBase {\r\n    bytes32 internal keyHash;\r\n    uint256 internal fee;\r\n\r\n    uint256 public randomResult;\r\n\r\n\r\n    /**\r\n     * Constructor inherits VRFConsumerBase\r\n     *\r\n     * Network: Polygon (Matic) Mumbai Testnet\r\n     * Chainlink VRF Coordinator address: 0x8C7382F9D8f56b33781fE506E897a4F1e2d17255\r\n     * LINK token address:                0x326C977E6efc84E512bB9C30f76E30c160eD06FB\r\n     * Key Hash: 0x6e75b569a01ef56d18cab6a8e71e6600d6ce853834d4a5748b720d06f878b3a4\r\n     */\r\n    constructor()\r\n        VRFConsumerBase(\r\n            0x8C7382F9D8f56b33781fE506E897a4F1e2d17255, // VRF Coordinator\r\n            0x326C977E6efc84E512bB9C30f76E30c160eD06FB  // LINK Token\r\n        ) \r\n    {\r\n        keyHash = 0x6e75b569a01ef56d18cab6a8e71e6600d6ce853834d4a5748b720d06f878b3a4;\r\n        fee = 0.0001 * 10 ** 18; // 0.0001 LINK\r\n    }\r\n\r\n    /**\r\n     * Requests randomness\r\n     */\r\n    function getRandomNumber() public returns (bytes32 requestId) {\r\n        require(LINK.balanceOf(address(this)) > fee, \"Not enough LINK - fill contract with faucet\");\r\n        return requestRandomness(keyHash, fee);\r\n    }\r\n\r\n    /**\r\n     * Callback function used by VRF Coordinator\r\n     */\r\n    function fulfillRandomness(bytes32 requestId, uint256 randomness) internal override {\r\n        bytes32 i = requestId;\r\n        i = requestId;\r\n        randomResult = (randomness % 5) + 1;\r\n    }\r\n\r\n    function getRandom() public view returns (uint256) {\r\n        uint256 numb = (randomResult % 5) + 1;\r\n        return numb;\r\n    }\r\n\r\n\r\n}",
  "sourcePath": "C:/Users/ACER/Desktop/Projects/Semicolons/Testing/Testing/starter_dynamic_nfts/contracts/Random.sol",
  "compiler": {
    "name": "solc",
    "version": "0.8.4+commit.c7e474f2.Emscripten.clang"
  },
  "schemaVersion": "3.4.1",
  "updatedAt": "2022-03-10T11:27:07.791Z",
  "networkType": "ethereum",
  "devdoc": {
    "kind": "dev",
    "methods": {},
    "version": 1
  },
  "userdoc": {
    "kind": "user",
    "methods": {
      "constructor": {
        "notice": "Constructor inherits VRFConsumerBase Network: Polygon (Matic) Mumbai Testnet Chainlink VRF Coordinator address: 0x8C7382F9D8f56b33781fE506E897a4F1e2d17255 LINK token address:                0x326C977E6efc84E512bB9C30f76E30c160eD06FB Key Hash: 0x6e75b569a01ef56d18cab6a8e71e6600d6ce853834d4a5748b720d06f878b3a4"
      },
      "getRandomNumber()": {
        "notice": "Requests randomness"
      }
    },
    "version": 1
  }
}