{
  "contractName": "Token",
  "abi": [
    {
      "inputs": [],
      "stateMutability": "nonpayable",
      "type": "constructor"
    },
    {
      "anonymous": false,
      "inputs": [
        {
          "indexed": true,
          "internalType": "address",
          "name": "owner",
          "type": "address"
        },
        {
          "indexed": true,
          "internalType": "address",
          "name": "spender",
          "type": "address"
        },
        {
          "indexed": false,
          "internalType": "uint256",
          "name": "value",
          "type": "uint256"
        }
      ],
      "name": "Approval",
      "type": "event"
    },
    {
      "anonymous": false,
      "inputs": [
        {
          "indexed": true,
          "internalType": "address",
          "name": "from",
          "type": "address"
        },
        {
          "indexed": true,
          "internalType": "address",
          "name": "to",
          "type": "address"
        },
        {
          "indexed": false,
          "internalType": "uint256",
          "name": "value",
          "type": "uint256"
        }
      ],
      "name": "Transfer",
      "type": "event"
    },
    {
      "inputs": [
        {
          "internalType": "address",
          "name": "owner",
          "type": "address"
        },
        {
          "internalType": "address",
          "name": "spender",
          "type": "address"
        }
      ],
      "name": "allowance",
      "outputs": [
        {
          "internalType": "uint256",
          "name": "",
          "type": "uint256"
        }
      ],
      "stateMutability": "view",
      "type": "function"
    },
    {
      "inputs": [
        {
          "internalType": "address",
          "name": "spender",
          "type": "address"
        },
        {
          "internalType": "uint256",
          "name": "amount",
          "type": "uint256"
        }
      ],
      "name": "approve",
      "outputs": [
        {
          "internalType": "bool",
          "name": "",
          "type": "bool"
        }
      ],
      "stateMutability": "nonpayable",
      "type": "function"
    },
    {
      "inputs": [
        {
          "internalType": "address",
          "name": "account",
          "type": "address"
        }
      ],
      "name": "balanceOf",
      "outputs": [
        {
          "internalType": "uint256",
          "name": "",
          "type": "uint256"
        }
      ],
      "stateMutability": "view",
      "type": "function"
    },
    {
      "inputs": [],
      "name": "decimals",
      "outputs": [
        {
          "internalType": "uint8",
          "name": "",
          "type": "uint8"
        }
      ],
      "stateMutability": "view",
      "type": "function"
    },
    {
      "inputs": [
        {
          "internalType": "address",
          "name": "spender",
          "type": "address"
        },
        {
          "internalType": "uint256",
          "name": "subtractedValue",
          "type": "uint256"
        }
      ],
      "name": "decreaseAllowance",
      "outputs": [
        {
          "internalType": "bool",
          "name": "",
          "type": "bool"
        }
      ],
      "stateMutability": "nonpayable",
      "type": "function"
    },
    {
      "inputs": [
        {
          "internalType": "address",
          "name": "spender",
          "type": "address"
        },
        {
          "internalType": "uint256",
          "name": "addedValue",
          "type": "uint256"
        }
      ],
      "name": "increaseAllowance",
      "outputs": [
        {
          "internalType": "bool",
          "name": "",
          "type": "bool"
        }
      ],
      "stateMutability": "nonpayable",
      "type": "function"
    },
    {
      "inputs": [],
      "name": "name",
      "outputs": [
        {
          "internalType": "string",
          "name": "",
          "type": "string"
        }
      ],
      "stateMutability": "view",
      "type": "function"
    },
    {
      "inputs": [],
      "name": "symbol",
      "outputs": [
        {
          "internalType": "string",
          "name": "",
          "type": "string"
        }
      ],
      "stateMutability": "view",
      "type": "function"
    },
    {
      "inputs": [],
      "name": "totalSupply",
      "outputs": [
        {
          "internalType": "uint256",
          "name": "",
          "type": "uint256"
        }
      ],
      "stateMutability": "view",
      "type": "function"
    },
    {
      "inputs": [
        {
          "internalType": "address",
          "name": "to",
          "type": "address"
        },
        {
          "internalType": "uint256",
          "name": "amount",
          "type": "uint256"
        }
      ],
      "name": "transfer",
      "outputs": [
        {
          "internalType": "bool",
          "name": "",
          "type": "bool"
        }
      ],
      "stateMutability": "nonpayable",
      "type": "function"
    },
    {
      "inputs": [
        {
          "internalType": "address",
          "name": "from",
          "type": "address"
        },
        {
          "internalType": "address",
          "name": "to",
          "type": "address"
        },
        {
          "internalType": "uint256",
          "name": "amount",
          "type": "uint256"
        }
      ],
      "name": "transferFrom",
      "outputs": [
        {
          "internalType": "bool",
          "name": "",
          "type": "bool"
        }
      ],
      "stateMutability": "nonpayable",
      "type": "function"
    },
    {
      "inputs": [
        {
          "internalType": "address",
          "name": "_recipient",
          "type": "address"
        }
      ],
      "name": "createTokens",
      "outputs": [],
      "stateMutability": "nonpayable",
      "type": "function"
    },
    {
      "inputs": [
        {
          "internalType": "address",
          "name": "_sender",
          "type": "address"
        },
        {
          "internalType": "address",
          "name": "_recipient",
          "type": "address"
        }
      ],
      "name": "payOneToken",
      "outputs": [],
      "stateMutability": "nonpayable",
      "type": "function"
    }
  ],
  "bytecode": "0x60806040526000600560006101000a81548160ff0219169083151502179055503480156200002c57600080fd5b506040518060400160405280600681526020017f4372697a7a6100000000000000000000000000000000000000000000000000008152506040518060400160405280600381526020017f43525a00000000000000000000000000000000000000000000000000000000008152508160039080519060200190620000b1929190620000d3565b508060049080519060200190620000ca929190620000d3565b505050620001e8565b828054620000e19062000183565b90600052602060002090601f01602090048101928262000105576000855562000151565b82601f106200012057805160ff191683800117855562000151565b8280016001018555821562000151579182015b828111156200015057825182559160200191906001019062000133565b5b50905062000160919062000164565b5090565b5b808211156200017f57600081600090555060010162000165565b5090565b600060028204905060018216806200019c57607f821691505b60208210811415620001b357620001b2620001b9565b5b50919050565b7f4e487b7100000000000000000000000000000000000000000000000000000000600052602260045260246000fd5b6115e980620001f86000396000f3fe608060405234801561001057600080fd5b50600436106100ec576000357c01000000000000000000000000000000000000000000000000000000009004806339509351116100a9578063a457c2d711610083578063a457c2d714610245578063a9059cbb14610275578063cedbbeee146102a5578063dd62ed3e146102c1576100ec565b806339509351146101c757806370a08231146101f757806395d89b4114610227576100ec565b806306fdde03146100f1578063095ea7b31461010f5780630ca56cff1461013f57806318160ddd1461015b57806323b872dd14610179578063313ce567146101a9575b600080fd5b6100f96102f1565b6040516101069190611066565b60405180910390f35b61012960048036038101906101249190610e91565b610383565b604051610136919061104b565b60405180910390f35b61015960048036038101906101549190610e06565b6103a6565b005b6101636103bd565b6040516101709190611188565b60405180910390f35b610193600480360381019061018e9190610e42565b6103c7565b6040516101a0919061104b565b60405180910390f35b6101b16103f6565b6040516101be91906111a3565b60405180910390f35b6101e160048036038101906101dc9190610e91565b6103ff565b6040516101ee919061104b565b60405180910390f35b610211600480360381019061020c9190610ddd565b6104a9565b60405161021e9190611188565b60405180910390f35b61022f6104f1565b60405161023c9190611066565b60405180910390f35b61025f600480360381019061025a9190610e91565b610583565b60405161026c919061104b565b60405180910390f35b61028f600480360381019061028a9190610e91565b61066d565b60405161029c919061104b565b60405180910390f35b6102bf60048036038101906102ba9190610ddd565b610690565b005b6102db60048036038101906102d69190610e06565b6106e2565b6040516102e89190611188565b60405180910390f35b606060038054610300906112b8565b80601f016020809104026020016040519081016040528092919081815260200182805461032c906112b8565b80156103795780601f1061034e57610100808354040283529160200191610379565b820191906000526020600020905b81548152906001019060200180831161035c57829003601f168201915b5050505050905090565b60008061038e610769565b905061039b818585610771565b600191505092915050565b6103b98282670de0b6b3a764000061093c565b5050565b6000600254905090565b6000806103d2610769565b90506103df858285610bbd565b6103ea85858561093c565b60019150509392505050565b60006012905090565b60008061040a610769565b905061049e818585600160008673ffffffffffffffffffffffffffffffffffffffff1673ffffffffffffffffffffffffffffffffffffffff16815260200190815260200160002060008973ffffffffffffffffffffffffffffffffffffffff1673ffffffffffffffffffffffffffffffffffffffff1681526020019081526020016000205461049991906111da565b610771565b600191505092915050565b60008060008373ffffffffffffffffffffffffffffffffffffffff1673ffffffffffffffffffffffffffffffffffffffff168152602001908152602001600020549050919050565b606060048054610500906112b8565b80601f016020809104026020016040519081016040528092919081815260200182805461052c906112b8565b80156105795780601f1061054e57610100808354040283529160200191610579565b820191906000526020600020905b81548152906001019060200180831161055c57829003601f168201915b5050505050905090565b60008061058e610769565b90506000600160008373ffffffffffffffffffffffffffffffffffffffff1673ffffffffffffffffffffffffffffffffffffffff16815260200190815260200160002060008673ffffffffffffffffffffffffffffffffffffffff1673ffffffffffffffffffffffffffffffffffffffff16815260200190815260200160002054905083811015610654576040517f08c379a000000000000000000000000000000000000000000000000000000000815260040161064b90611148565b60405180910390fd5b6106618286868403610771565b60019250505092915050565b600080610678610769565b905061068581858561093c565b600191505092915050565b60001515600560009054906101000a900460ff161515146106b057600080fd5b6106c48169d3c21bcecceda1000000610c49565b6001600560006101000a81548160ff02191690831515021790555050565b6000600160008473ffffffffffffffffffffffffffffffffffffffff1673ffffffffffffffffffffffffffffffffffffffff16815260200190815260200160002060008373ffffffffffffffffffffffffffffffffffffffff1673ffffffffffffffffffffffffffffffffffffffff16815260200190815260200160002054905092915050565b600033905090565b600073ffffffffffffffffffffffffffffffffffffffff168373ffffffffffffffffffffffffffffffffffffffff1614156107e1576040517f08c379a00000000000000000000000000000000000000000000000000000000081526004016107d890611128565b60405180910390fd5b600073ffffffffffffffffffffffffffffffffffffffff168273ffffffffffffffffffffffffffffffffffffffff161415610851576040517f08c379a0000000000000000000000000000000000000000000000000000000008152600401610848906110a8565b60405180910390fd5b80600160008573ffffffffffffffffffffffffffffffffffffffff1673ffffffffffffffffffffffffffffffffffffffff16815260200190815260200160002060008473ffffffffffffffffffffffffffffffffffffffff1673ffffffffffffffffffffffffffffffffffffffff168152602001908152602001600020819055508173ffffffffffffffffffffffffffffffffffffffff168373ffffffffffffffffffffffffffffffffffffffff167f8c5be1e5ebec7d5bd14f71427d1e84f3dd0314c0f7b2291e5b200ac8c7c3b9258360405161092f9190611188565b60405180910390a3505050565b600073ffffffffffffffffffffffffffffffffffffffff168373ffffffffffffffffffffffffffffffffffffffff1614156109ac576040517f08c379a00000000000000000000000000000000000000000000000000000000081526004016109a390611108565b60405180910390fd5b600073ffffffffffffffffffffffffffffffffffffffff168273ffffffffffffffffffffffffffffffffffffffff161415610a1c576040517f08c379a0000000000000000000000000000000000000000000000000000000008152600401610a1390611088565b60405180910390fd5b610a27838383610da9565b60008060008573ffffffffffffffffffffffffffffffffffffffff1673ffffffffffffffffffffffffffffffffffffffff16815260200190815260200160002054905081811015610aad576040517f08c379a0000000000000000000000000000000000000000000000000000000008152600401610aa4906110e8565b60405180910390fd5b8181036000808673ffffffffffffffffffffffffffffffffffffffff1673ffffffffffffffffffffffffffffffffffffffff16815260200190815260200160002081905550816000808573ffffffffffffffffffffffffffffffffffffffff1673ffffffffffffffffffffffffffffffffffffffff1681526020019081526020016000206000828254610b4091906111da565b925050819055508273ffffffffffffffffffffffffffffffffffffffff168473ffffffffffffffffffffffffffffffffffffffff167fddf252ad1be2c89b69c2b068fc378daa952ba7f163c4a11628f55a4df523b3ef84604051610ba49190611188565b60405180910390a3610bb7848484610dae565b50505050565b6000610bc984846106e2565b90507fffffffffffffffffffffffffffffffffffffffffffffffffffffffffffffffff8114610c435781811015610c35576040517f08c379a0000000000000000000000000000000000000000000000000000000008152600401610c2c906110c8565b60405180910390fd5b610c428484848403610771565b5b50505050565b600073ffffffffffffffffffffffffffffffffffffffff168273ffffffffffffffffffffffffffffffffffffffff161415610cb9576040517f08c379a0000000000000000000000000000000000000000000000000000000008152600401610cb090611168565b60405180910390fd5b610cc560008383610da9565b8060026000828254610cd791906111da565b92505081905550806000808473ffffffffffffffffffffffffffffffffffffffff1673ffffffffffffffffffffffffffffffffffffffff1681526020019081526020016000206000828254610d2c91906111da565b925050819055508173ffffffffffffffffffffffffffffffffffffffff16600073ffffffffffffffffffffffffffffffffffffffff167fddf252ad1be2c89b69c2b068fc378daa952ba7f163c4a11628f55a4df523b3ef83604051610d919190611188565b60405180910390a3610da560008383610dae565b5050565b505050565b505050565b600081359050610dc281611585565b92915050565b600081359050610dd78161159c565b92915050565b600060208284031215610def57600080fd5b6000610dfd84828501610db3565b91505092915050565b60008060408385031215610e1957600080fd5b6000610e2785828601610db3565b9250506020610e3885828601610db3565b9150509250929050565b600080600060608486031215610e5757600080fd5b6000610e6586828701610db3565b9350506020610e7686828701610db3565b9250506040610e8786828701610dc8565b9150509250925092565b60008060408385031215610ea457600080fd5b6000610eb285828601610db3565b9250506020610ec385828601610dc8565b9150509250929050565b610ed681611242565b82525050565b6000610ee7826111be565b610ef181856111c9565b9350610f01818560208601611285565b610f0a81611348565b840191505092915050565b6000610f226023836111c9565b9150610f2d82611359565b604082019050919050565b6000610f456022836111c9565b9150610f50826113a8565b604082019050919050565b6000610f68601d836111c9565b9150610f73826113f7565b602082019050919050565b6000610f8b6026836111c9565b9150610f9682611420565b604082019050919050565b6000610fae6025836111c9565b9150610fb98261146f565b604082019050919050565b6000610fd16024836111c9565b9150610fdc826114be565b604082019050919050565b6000610ff46025836111c9565b9150610fff8261150d565b604082019050919050565b6000611017601f836111c9565b91506110228261155c565b602082019050919050565b6110368161126e565b82525050565b61104581611278565b82525050565b60006020820190506110606000830184610ecd565b92915050565b600060208201905081810360008301526110808184610edc565b905092915050565b600060208201905081810360008301526110a181610f15565b9050919050565b600060208201905081810360008301526110c181610f38565b9050919050565b600060208201905081810360008301526110e181610f5b565b9050919050565b6000602082019050818103600083015261110181610f7e565b9050919050565b6000602082019050818103600083015261112181610fa1565b9050919050565b6000602082019050818103600083015261114181610fc4565b9050919050565b6000602082019050818103600083015261116181610fe7565b9050919050565b600060208201905081810360008301526111818161100a565b9050919050565b600060208201905061119d600083018461102d565b92915050565b60006020820190506111b8600083018461103c565b92915050565b600081519050919050565b600082825260208201905092915050565b60006111e58261126e565b91506111f08361126e565b9250827fffffffffffffffffffffffffffffffffffffffffffffffffffffffffffffffff03821115611225576112246112ea565b5b828201905092915050565b600061123b8261124e565b9050919050565b60008115159050919050565b600073ffffffffffffffffffffffffffffffffffffffff82169050919050565b6000819050919050565b600060ff82169050919050565b60005b838110156112a3578082015181840152602081019050611288565b838111156112b2576000848401525b50505050565b600060028204905060018216806112d057607f821691505b602082108114156112e4576112e3611319565b5b50919050565b7f4e487b7100000000000000000000000000000000000000000000000000000000600052601160045260246000fd5b7f4e487b7100000000000000000000000000000000000000000000000000000000600052602260045260246000fd5b6000601f19601f8301169050919050565b7f45524332303a207472616e7366657220746f20746865207a65726f206164647260008201527f6573730000000000000000000000000000000000000000000000000000000000602082015250565b7f45524332303a20617070726f766520746f20746865207a65726f20616464726560008201527f7373000000000000000000000000000000000000000000000000000000000000602082015250565b7f45524332303a20696e73756666696369656e7420616c6c6f77616e6365000000600082015250565b7f45524332303a207472616e7366657220616d6f756e742065786365656473206260008201527f616c616e63650000000000000000000000000000000000000000000000000000602082015250565b7f45524332303a207472616e736665722066726f6d20746865207a65726f20616460008201527f6472657373000000000000000000000000000000000000000000000000000000602082015250565b7f45524332303a20617070726f76652066726f6d20746865207a65726f2061646460008201527f7265737300000000000000000000000000000000000000000000000000000000602082015250565b7f45524332303a2064656372656173656420616c6c6f77616e63652062656c6f7760008201527f207a65726f000000000000000000000000000000000000000000000000000000602082015250565b7f45524332303a206d696e7420746f20746865207a65726f206164647265737300600082015250565b61158e81611230565b811461159957600080fd5b50565b6115a58161126e565b81146115b057600080fd5b5056fea2646970667358221220de4e6fa7f2162caebe08a57300a96d77530d6049ba7ae76efd2152019081572664736f6c63430008040033",
  "immutableReferences": {},
  "source": "// SPDX-License-Identifier: GPL-3.0\r\npragma solidity ^0.8.0;\r\n\r\nimport \"@openzeppelin/contracts/token/ERC20/ERC20.sol\";\r\n\r\ncontract Token is ERC20 {\r\n    bool internal isCreateToken = false;\r\n\r\n    constructor() ERC20(\"Crizza\", \"CRZ\") {}\r\n\r\n    function createTokens(address _recipient) external {\r\n        require(isCreateToken == false);\r\n        _mint(_recipient, 1000000000000000000000000);\r\n        isCreateToken = true;\r\n    }\r\n\r\n    function payOneToken(address _sender, address _recipient) external {\r\n        _transfer(_sender, _recipient, 1000000000000000000);\r\n    }\r\n}\r\n",
  "sourcePath": "C:/Users/ACER/Desktop/Projects/Semicolons/Testing/Testing/starter_dynamic_nfts/contracts/Token.sol",
  "compiler": {
    "name": "solc",
    "version": "0.8.4+commit.c7e474f2.Emscripten.clang"
  },
  "schemaVersion": "3.4.1",
  "updatedAt": "2022-03-10T11:26:23.949Z",
  "devdoc": {
    "kind": "dev",
    "methods": {
      "allowance(address,address)": {
        "details": "See {IERC20-allowance}."
      },
      "approve(address,uint256)": {
        "details": "See {IERC20-approve}. NOTE: If `amount` is the maximum `uint256`, the allowance is not updated on `transferFrom`. This is semantically equivalent to an infinite approval. Requirements: - `spender` cannot be the zero address."
      },
      "balanceOf(address)": {
        "details": "See {IERC20-balanceOf}."
      },
      "decimals()": {
        "details": "Returns the number of decimals used to get its user representation. For example, if `decimals` equals `2`, a balance of `505` tokens should be displayed to a user as `5.05` (`505 / 10 ** 2`). Tokens usually opt for a value of 18, imitating the relationship between Ether and Wei. This is the value {ERC20} uses, unless this function is overridden; NOTE: This information is only used for _display_ purposes: it in no way affects any of the arithmetic of the contract, including {IERC20-balanceOf} and {IERC20-transfer}."
      },
      "decreaseAllowance(address,uint256)": {
        "details": "Atomically decreases the allowance granted to `spender` by the caller. This is an alternative to {approve} that can be used as a mitigation for problems described in {IERC20-approve}. Emits an {Approval} event indicating the updated allowance. Requirements: - `spender` cannot be the zero address. - `spender` must have allowance for the caller of at least `subtractedValue`."
      },
      "increaseAllowance(address,uint256)": {
        "details": "Atomically increases the allowance granted to `spender` by the caller. This is an alternative to {approve} that can be used as a mitigation for problems described in {IERC20-approve}. Emits an {Approval} event indicating the updated allowance. Requirements: - `spender` cannot be the zero address."
      },
      "name()": {
        "details": "Returns the name of the token."
      },
      "symbol()": {
        "details": "Returns the symbol of the token, usually a shorter version of the name."
      },
      "totalSupply()": {
        "details": "See {IERC20-totalSupply}."
      },
      "transfer(address,uint256)": {
        "details": "See {IERC20-transfer}. Requirements: - `to` cannot be the zero address. - the caller must have a balance of at least `amount`."
      },
      "transferFrom(address,address,uint256)": {
        "details": "See {IERC20-transferFrom}. Emits an {Approval} event indicating the updated allowance. This is not required by the EIP. See the note at the beginning of {ERC20}. NOTE: Does not update the allowance if the current allowance is the maximum `uint256`. Requirements: - `from` and `to` cannot be the zero address. - `from` must have a balance of at least `amount`. - the caller must have allowance for ``from``'s tokens of at least `amount`."
      }
    },
    "version": 1
  },
  "userdoc": {
    "kind": "user",
    "methods": {},
    "version": 1
  }
}